:020000040800F2
:1000000000000220691D00085D1C00085F1C00083C
:10001000611C0008631C0008651C0008000000004B
:10002000000000000000000000000000671C000845
:10003000691C0008000000006B1C00086D1C000813
:10004000B91D0008B91D0008B91D0008B91D000838
:10005000B91D0008B91D0008B91D0008B91D000828
:10006000B91D0008B91D0008B91D0008B91D000818
:10007000B91D0008B91D0008B91D0008B91D000808
:10008000711C0008B91D0008B91D0008B91D000841
:10009000B91D0008B91D0008B91D0008B91D0008E8
:1000A000B91D0008B91D0008B91D0008B91D0008D8
:1000B000B91D0008B91D0008B91D0008B91D0008C8
:1000C000B91D0008B91D0008B91D0008B91D0008B8
:1000D000B91D0008B91D0008B91D0008B91D0008A8
:1000E000B91D0008B91D0008B91D0008B91D000898
:1000F000B91D0008B91D0008B91D0008B91D000888
:10010000B91D0008B91D0008B91D0008B91D000877
:10011000B91D0008B91D0008B91D0008B91D000867
:100120007D1C0008B91D0008B91D0008B91D000894
:10013000B91D0008B91D0008B91D0008B91D000847
:10014000B91D0008B91D0008B91D0008B91D000837
:10015000B91D0008B91D0008B91D0008B91D000827
:10016000B91D0008B91D0008B91D0008B91D000817
:10017000B91D0008B91D0008B91D000800000000E5
:08018000B91D0008B91D0008BB
:1001880010B5054C237833B9044B13B10448AFF3C9
:1001980000800123237010BD8C00002000000000A7
:1001A800A821000808B5034B1BB103490348AFF366
:1001B800008008BD0000000090000020A821000871
:1001C80053B94AB9002908BF00281CBF4FF0FF31B6
:1001D8004FF0FF3000F07EB9ADF1080C6DE904CEA8
:1001E80000F006F8DDF804E0DDE9022304B070470A
:1001F8002DE9F0478C460E460446089D002B50D149
:100208008A4217466CD9B2FA82FEBEF1000F0BD0B3
:10021800CEF1200420FA04F401FA0EF644EA060CA2
:1002280002FA0EF700FA0EF44FEA1749220CBCFB4B
:10023800F9F01FFA87F809FB10C642EA064600FBE8
:1002480008F3B34209D9F61900F1FF3280F0228190
:10025800B34240F21F8102383E44F61AA2B2B6FBFE
:10026800F9F309FB136642EA064403FB08F8A045C4
:1002780009D9E41903F1FF3280F00A81A04540F260
:100288000781023B3C44C8EB040443EA00400021D8
:10029800002D62D024FA0EF400232C606B60BDE8B8
:1002A800F0878B4207D9002D55D0002185E8410001
:1002B8000846BDE8F087B3FA83F1002940F0908042
:1002C800B34202D3824200F2F880841A66EB030636
:1002D8000120B446002D40D085E81010BDE8F08715
:1002E80012B90127B7FBF2F7B7FA87FEBEF1000F84
:1002F80035D1F31B4FEA17481FFA87FC0121B3FBDE
:10030800F8F0220C08FB103642EA06460CFB00F314
:10031800B34207D9F61900F1FF3202D2B34200F214
:10032800CE801046F61AA2B2B6FBF8F308FB1366A5
:1003380042EA06440CFB03FCA44507D9E41903F17F
:10034800FF3202D2A44500F2B5801346CCEB040478
:1003580043EA00409CE729462846BDE8F087CEF1ED
:10036800200106FA0EF307FA0EF720FA01F94FEA10
:100378001748CE4049EA0309B6FBF8FA4FEA194490
:1003880008FB1A661FFA87FC44EA06430AFB0CF2CC
:100398009A4200FA0EF40AD9DB190AF1FF3180F00B
:1003A80087809A4240F28480AAF1020A3B449B1A51
:1003B8001FFA89F9B3FBF8F108FB113349EA034343
:1003C80001FB0CF69E4207D9DB1901F1FF326BD213
:1003D8009E4269D902393B449B1B41EA0A418EE798
:1003E800C1F1200E22FA0EF48B40234320FA0EF7B7
:1003F80006FA01F44FEA134C26FA0EF63C43B6FB14
:10040800FCF9270C0CFB19661FFA83F847EA064625
:1004180009FB08F7B74202FA01F200FA01FA08D913
:10042800F61809F1FF3041D2B7423FD9A9F10209C4
:100438001E44F61BA0B2B6FBFCF40CFB146640EAA3
:10044800064704FB08F8B84507D9FF1804F1FF3040
:1004580028D2B84526D9023C1F4444EA0940C8EBD3
:100468000707A0FB02894F4544464E4614D329D0BE
:1004780065B3BAEB040367EB060707FA0EFECB4039
:10048800CF404EEA030385E888000021BDE8F087E5
:100498001346F8E61046E0E6B8EB020469EB0306FB
:1004A8000138E5E70446D8E7114695E78146C0E7F5
:1004B8008A467CE7023B3C4448E708460AE702389C
:1004C8003E442FE7C245E7D33E46D1E72946BDE87B
:1004D800F08700BF704700BF38B50E4A0E4B05467F
:1004E80018784FF47A73B3FBF0F31068B0FBF3F0AD
:1004F80000F0AEFA044658B90F2D09D8024629462D
:100508004FF0FF3000F062FA044B20461D6038BD02
:10051800012038BD880000200400002000000020D1
:1005280008B50B4B1A6842F400721A601A6842F454
:1005380080621A601A6842F480721A60032000F020
:1005480033FA0020FFF7C8FF01F068FB002008BD60
:10055800003C0240034A0449136809780B441360BD
:10056800704700BFA800002004000020014B186855
:10057800704700BFA800002038B50446002800F0E6
:100588009A80056C25B901F079F9656484F83C50C6
:10059800236CDB0600F18A80236C23F4885323F054
:1005A800020343F002032364444B5A6822F44032A6
:1005B8005A60596862680A435A60236821695A6810
:1005C800A06A22F480725A605A6842EA01225A608C
:1005D8005A6822F040725A605968A2680A435A6001
:1005E8009A6822F400629A609968E2680A439A60FD
:1005F800334A90420ED0996821F0706199609A68E8
:1006080002439A609A6822F040529A609968E26AB6
:100618000A4306E09A6822F070629A609A6822F0AB
:1006280040529A609A68217E22F002029A609A6883
:1006380042EA41029A6094F820206AB15A6842F46A
:1006480000625A605A6822F460425A60626A5968C5
:10065800013A41EA423202E05A6822F400625A60E2
:10066800DA6A22F47002DA62E269D96A013A41EA86
:100678000252DA629A6894F8301022F400729A6092
:100688009A6842EA41229A609A68616922F4806213
:100698009A609A68002042EA81229A606064236C1A
:1006A80023F0030343F00103236400E00120002347
:1006B80084F83C3038BD012038BD00BF002301401C
:1006C8000100000F37B513460022019290F83C2034
:1006D800012A044676D00568012280F83C20AA68E1
:1006E800D00703D5AA68D20713D455E0AA6842F008
:1006F8000102AA60354A1068354AB0FBF2F000EBF7
:1007080040000190019A002AECD0019A013A019226
:10071800F8E7206C20F4E06020F0010040F48070DD
:1007280020646A68500541BF206C20F4405040F4B2
:1007380080502064226CA06B12F480521CBF626C43
:1007480022F006026264002284F83C20214AC26337
:10075800214A0264214AC2646FF022022A606A6850
:1007680042F080626A60AA6842F48072AA600A460F
:1007780005F14C0100F0E0FA194A1A49536813F0E0
:100788001F0F236813D18B4213D001F580718B4260
:1007980004D15268D2060CD0002014E012498B42D2
:1007A800FAD1526802F01F020F2A02D9F4E78B42ED
:1007B800F2D1986810F04050EED19A6842F0804229
:1007C8009A6000E0022003B030BD00BF880000201E
:1007D80040420F0017080008F50700080108000844
:1007E80000230140002001400022014008B5806B31
:1007F80001F050F908BD7047806B08B540230364C9
:10080800436C43F004034364FFF7F5FF08BD836BB3
:100818001A6C12F0500F10B51A6C23D142F4007202
:100828001A641A68916811F0405F17D1197EA9B946
:10083800D16A11F4700F02D0916848050ED451683E
:1008480021F0200151601A6C22F480721A641A6C2B
:10085800D1045EBF1A6C42F001021A64184601F016
:100868002DF910BDD20603D51846FFF7C4FF10BDF9
:100878009B6BBDE81040DB6C18470000F7B5002300
:10088800019390F83C30012B69D00D6804688F689B
:100898000123092D80F83C30AEB210D906EB460290
:1008A800D4F80CE0A2F11E0307229A402EEA0202B5
:1008B800E260E26807FA03F31343E3600EE022699B
:1008C80005EB45034FF0070E0EFA03FE22EA0E026F
:1008D8002261226907FA03F3134323614B68062B4D
:1008E8004FEA83020DD81344676B591F1F238B40AF
:1008F80027EA03036363626B06FA01F1114361633C
:100908001DE00C2B0ED81344216BA3F123021F23E7
:10091800934021EA03032363236B06FA02F21A4386
:1009280022630CE01344E76A413B1F229A4027EAFE
:100938000202E262E16A06FA03F20A43E262164B35
:100948009C4204D0002380F83C30184622E0122D47
:1009580007D1124A536843F48003536001E0022030
:1009680018E0A5F11003012BECD80C4A5368102DA0
:1009780043F400035360E5D1094B0A4A1B68B3FBF3
:10098800F2F20A2353430193019B002BDAD0019B17
:10099800013BF8E703B0F0BD00200140002301400F
:1009A8008800002040420F00074AD36823F4E06320
:1009B8001B041B0C43F0BF63000243F4003300F434
:1009C800E0600343D360704700ED00E0174BDB683D
:1009D800C3F3022330B5C3F107041D1D042C28BF3F
:1009E8000424062D4FF0010505FA04F404F1FF3440
:1009F8008CBF033B00230C409C4005FA03F3013BEA
:100A08001A40002842EA04024FEA0212ADBF00F180
:100A1800604000F00F00064B00F56140B5BFD2B250
:100A2800D2B21A5480F8002330BD00BF00ED00E0B8
:100A380014ED00E0002808DB4209012300F01F0044
:100A480003FA00F0014B43F82200704700E100E090
:100A58000138B0F1807F0AD2064B074A5860F0216E
:100A680082F823100020072298601A60704701203E
:100A7800704700BF10E000E000ED00E010B504464C
:100A880068B1037903F0FF0213B9427100F04CFF1B
:100A980002232371002001232061237110BD01204E
:100AA80010BD0000F8B50546407901280E464FF004
:100AB80002001146069A4CD001246C7128712C68EA
:100AC800C6B9A868234FC763234F0764234FC76479
:100AD8002768042A47F48057276005D0082A06D0DB
:100AE80032BB04F1080224E004F10C0221E004F115
:100AF80010021EE0E8681A4FC7631A4F07641A4FBE
:100B0800C7642768042A47F08057276005D0082A59
:100B180006D042B904F1140206E004F1180203E019
:100B280004F11C0200E00022276847F0005703E0A8
:100B38003246276847F40057276000F0FDF8296817
:100B480001220B6802FA06F61E4300200E60687147
:100B5800F8BDF8BD770B0008890B0008950B000855
:100B6800F50B0008050C00080F0C0008704710B5BD
:100B7800846B2046FFF7FAFF0123237110BD7047ED
:100B880008B5806BFFF7FBFF08BD704710B5846B95
:100B9800236943F0040323612046FFF7F6FF01238E
:100BA800237110BD4379012B70B54FF0020318D0A3
:100BB80006680371356840F6FE73934025EA03041E
:100BC80091E828002B439340234333603368C021C6
:100BD80001FA02F223EA02020123326003710023C0
:100BE8004371184670BD70477047704710B5846BE5
:100BF8002046FFF7F8FF0123237110BD08B5806B6D
:100C0800FFF7F2FF08BD10B5846B236943F00403B6
:100C180023612046FFF7E9FF0123237110BD00007F
:100C28000368DAB223F47F7323F003031821103A20
:100C3800B2FBF1F20449032A88BF0433895C836557
:100C4800C165806D704700BFC021000870B50446BB
:100C5800FFF78CFC0546002C64D0002384F8343060
:100C68002268022384F83530136823F001031360E7
:100C780020680368D90708D5FFF778FC401B0528CA
:100C8800F6D920236365032051E00368294A616887
:100C9800A5691A40A3681943E368194323691943EE
:100CA80063690B43E1692B430B43216A0B431343ED
:100CB800626A042A01BF216BE66A31430B43036071
:100CC8004369042A23F0070343EA02031CD1A26AFA
:100CD800E16A1343C1B125B9012A0BD012D3022A04
:100CE8000FE0B5F5005F09D1032A0DD8DFE802F05F
:100CF8001C0A1C02B1F1C07F06D115E0022A13D9E3
:100D0800032A01D1CA010FD443612046FFF788FFA7
:100D1800E26D3F239340836000200123606584F8DF
:100D2800353070BD012070BD40236365012084F813
:100D3800350070BD3F8010F070B590F83440012C3C
:100D480038D0012480F8344090F83540866D012C65
:100D58004FF000054FF0020428D180F835400468B0
:100D68004565256825F48025256063608368402BE8
:100D78000EBFA260A160E260C26D08BFE1603F23C0
:100D88009340B360236843F016032360636943F01C
:100D980080036361036C1BB1236843F0080323607D
:100DA800236843F001032360002070BD80F83450AD
:100DB800204670BD022070BDF7B500230193856DF4
:100DC800594BC26D1F682E68082393401E42044683
:100DD8000CD001680868400708D5086820F00400AE
:100DE8000860AB60636D43F00103636501239340C2
:100DF8001E4208D021684969090641BFAB60636D8E
:100E080043F002036365042393401E4208D021681F
:100E18000968880741BFAB60636D43F004036365ED
:100E2800102303FA02F2164217D02368196809073B
:100E380013D5AA601A68500304D51B68190308D58E
:100E4800A36C07E01A68D2055EBF1A6822F0080290
:100E58001A60236C0BB120469847E16D20228A4026
:100E680016423BD023681868C60637D5AA6094F89E
:100E78003520052A1A6819D122F016021A605A6913
:100E880022F080025A61226C0AB9A26C1AB11A685F
:100E980022F008021A603F238B40AB60002384F8DD
:100EA8003430012384F83530236D37E0500304D5FE
:100EB8001B6819030ED4636C0DE01A6812F4807273
:100EC80008D1196821F010011960012384F8342031
:100ED80084F83530E36B0BB120469847636D03B354
:100EE800636DDA0719D50523226884F8353013684D
:100EF80023F0010313604FF41653B7FBF3F7019B7C
:100F080001339F42019302D31368DB07F7D4002310
:100F180084F83430012384F83530E36C0BB1204673
:100F2800984703B0F0BD00BF880000202DE9F04FBE
:100F38006A4F0B68DFF8ACC1DFF8AC8185B00022DE
:100F48000193BE460124019B944034EA030340F018
:100F5800BD804D6825F0100ABAF1020F14D14FEA8E
:100F6800D20900EB890902F0070BD9F820604FEA93
:100F78008B0B0F2303FA0BF326EA03060B6903FA1C
:100F88000BF33343C9F820304FEA420B4FF0030903
:100F9800036809FA0BF96FEA090905F0030603EA81
:100FA800090306FA0BF60AF1FF3A3343BAF1010FC7
:100FB80003600FD88368CE6809EA030306FA0BF6C4
:100FC8001E4386604368C5F3001623EA040396406F
:100FD80033434360C36809EA03098B6803FA0BF3D8
:100FE80043EA0903C360EB0070D500230393DCF8E0
:100FF80044603B4B46F48046CCF84460DCF84460DF
:1010080022F0030909F1804906F4804609F59C3964
:10101800039602F0030A039ED9F808B04FEA8A0A39
:101028000F2606FA0AF698422BEA06061CD003F5A4
:10103800806398421AD003F58063984218D003F56C
:101048008063984216D003F58063984214D04045D7
:1010580014D003F50063984212D003F580639842D8
:1010680014BF082307230CE000230AE0012308E04B
:10107800022306E0032304E0042302E0052300E042
:10108800062303FA0AF33343C9F808303B68E643FA
:1010980015F4803F0CBF33402343CEF80030DEF810
:1010A800043015F4003F0CBF334023437B60BB681A
:1010B80015F4801F0CBF33402343CEF80830DEF808
:1010C8000C30AD0254BF33402343FB600132102A79
:1010D8007FF438AF05B0BDE8F08F00BF003C014099
:1010E8000000024000380240001402402DE9F3419C
:1010F800044608B9012070E10368DD0703D42368BA
:1011080098074AD48EE09B4B9A6802F00C02042A96
:1011180007D09A6802F00C02082A0AD15B685902C3
:1011280007D5944B1B689A03E9D56368002BE6D171
:10113800E0E763688F4DB3F5803F06D0B3F5A02F85
:1011480008D12B6843F480232B602B6843F4803349
:101158002B6008E02A6822F480322A602A6822F488
:1011680080222A606BB1FFF701FA824D06462B6890
:101178009B03C4D4FFF7FAF9801B6428F7D903202E
:101188002BE1FFF7F3F906462B689F03B7D5FFF766
:10119800EDF9801B6428F7D9F1E7764B9A6812F0CD
:1011A8000C0F07D09A6802F00C02082A11D15B686C
:1011B8005E020ED46F4B1A68950702D5E268012AC1
:1011C80098D11A68216922F0F80242EAC1021A602D
:1011D80028E0E268684BBAB101221A60FFF7C6F945
:1011E800644D06462B68634A980705D4FFF7BEF995
:1011F800801B0228F6D9C2E71368216923F0F80397
:1012080043EAC10313600DE01A60FFF7AFF9594DC7
:1012180006462B68990705D5FFF7A8F9801B022811
:10122800F7D9ACE723681A0703D423685B0720D4EF
:1012380082E06269514B72B101221A60FFF796F998
:101248004C4D06466B6F9F07EFD4FFF78FF9801B55
:101258000228F7D993E71A60FFF788F9454D064643
:101268006B6F9807E1D5FFF781F9801B0228F7D942
:1012780085E7404B1A6C12F080520BD101921A6C20
:1012880042F080521A641B6C03F080530193019B57
:10129800012600E000263A4D2B68D90504D5A3683D
:1012A800344D012B10D115E02B6843F480732B606B
:1012B800FFF75CF907462B68DA05F0D4FFF756F913
:1012C800C01B0228F7D95AE7052B08D12B6F43F02A
:1012D80004032B672B6F43F001032B6708E02A6F89
:1012E80022F001022A672A6F22F004022A6773B1EA
:1012F800FFF73CF91F4D074641F288382B6F9B07D3
:101308000DD4FFF733F9C01B4045F7D937E7FFF78E
:101318002DF941F2883807462B6F980706D45EB13D
:10132800144A136C23F08053136405E0FFF71EF989
:10133800C01B4045F0D922E7A2690AB900204CE059
:101348000C4DAB6803F00C03082B3FF4D3AE0D4EE5
:101358000023022A336034D1FFF708F980462B684E
:10136800044F990110D5FFF701F9C8EB00000228D6
:10137800F5D904E70038024000004742800E474292
:101388000070004060004742E269236A1343626AC2
:1013980043EA8213E26A43EA0262A36A5B08013BFA
:1013A80042EA03437B6001233360FFF7DFF804461A
:1013B8003B689A01C2D4FFF7D9F8001B0228F7D975
:1013C800DDE6FFF7D3F804462B689B01B6D5FFF797
:1013D800CDF8001B0228F7D9D1E602B0BDE8F081AC
:1013E800134908B58B6803F00C03042B1CD0082B99
:1013F8001CD14A684B68496813F4800314BF0D4830
:101408000D48C1F3881118BF002302F03F02A1FB69
:101418000001FEF7D5FE064B5B68C3F301430133B9
:101428005B00B0FBF3F008BD024808BD024808BDE8
:101438000038024040787D010024F4002DE9F04195
:101448000D46044610B90120BDE8F081434B1A68E7
:1014580002F00F028A4217D3226896071CD5404B28
:1014680012F0040F1EBF996841F4E051996010070B
:1014780042BF996841F460419960996821F0F00091
:10148800A1680143996007E0CAB21A701B6803F0AB
:101498000F039942D7D1DFE7D10706D42F4B1A683B
:1014A80002F00F0295422CD332E063682C4A012BDC
:1014B80003D1126812F4003F08E0991E012912684E
:1014C80002D812F0007F01E012F0020FBBD0244EC8
:1014D800B26822F003021343B360FFF747F841F202
:1014E80088380746B368626803F00C03B3EB820FD1
:1014F800D4D0FFF73BF8C01B4045F3D90320BDE823
:10150800F081EAB21A701B6803F00F039D429AD16A
:1015180021684A0706D51248836823F4E052E36835
:10152800134383600B0707D50D4A2169936823F499
:10153800604343EAC1039360FFF752FF084B094A2F
:101548009B68C3F30313D35CD840074B1860002093
:10155800FEF7C2FF0020BDE8F08100BF003C02405A
:1015680000380240C821000888000020022380F8C3
:101578003D3003689A6802F00702062A1EBF1A68FF
:1015880042F001021A60012380F83D3000207047C4
:10159800304A0368904212D0B0F1804F0FD0A2F5C4
:1015A8007C4290420BD002F58062904207D002F54F
:1015B8008062904203D002F57842904219D14A687D
:1015C80023F070031343234A904229D0B0F1804F8F
:1015D80026D0A2F57C42904222D002F58062904249
:1015E8001ED002F5806290421AD002F578429042ED
:1015F80016D0194A904213D002F5806290420FD05B
:1016080002F5806290420BD0A2F59832904207D042
:1016180002F58062904203D002F58062904203D1C5
:10162800CA6823F4407313434A6923F080031343C1
:1016380003608B68C3620B688362064B984203D0D1
:1016480003F58063984201D10B6903630123436169
:10165800704700BF000001400040014010B504463B
:10166800A0B190F83D3003F0FF021BB980F83C2090
:1016780000F060FB022384F83D302068211DFFF74D
:1016880087FF012384F83D30002010BD012010BDE4
:1016980010B5846824F47F4421430A4342EA0323B3
:1016A800836010BD90F83C30012B70B504464FF0B4
:1016B800020000F08D8084F83D002068012384F842
:1016C8003C30836823F47F4323F0770383600B68FF
:1016D800402B59D00AD8102B6DD002D8002B6AD0D5
:1016E80070E0202B67D0302B65D06BE0602B33D0B7
:1016F80018D8502B66D1036A4D68CE68016A21F06C
:1017080001010162826923F00A0322F0F0022B43EF
:1017180042EA061282610362836823F0700343F091
:1017280057034EE0702B0CD0B3F5005F4AD1CB685D
:101738004A688968FFF7ACFF2268936843F48043DE
:1017480008E0CB684A688968FFF7A2FF22689368B7
:1017580043F07703936035E04D68CE68016A21F065
:10176800100101628269036A22F4704223F0A00327
:1017780043EA051342EA063282610362836823F072
:10178800700343F067031CE0036A4D68CE68016A82
:1017980021F001010162826923F00A0322F0F002BC
:1017A8002B4342EA061282610362836823F07003C6
:1017B80043F0470305E0826843F0070322F0700214
:1017C800134383600123002084F83D3084F83C00F3
:1017D80070BD90F83C30012B30B54FF0020314D0A7
:1017E80080F83D3003685C689A6824F070050C68DE
:1017F8002C4322F080054A685C602A439A600123E2
:1018080080F83D30002380F83C30184630BD000099
:101818001FB510220021684600F0BAFC1548164B87
:101828004FF480344FF0805280E81800C2620023E1
:1018380001244FF0C06283600361037680F8203092
:101848008262C360C46180F830404461FEF794FE50
:1018580008B100F0E1F912238DE818006946002369
:1018680004480293FFF70AF808B100F0D5F904B06C
:1018780010BD00BFAC0000200020014037B5174B59
:1018880002689A42054627D10023154A0193516CF4
:10189800144C41F480715164526CA36002F480725C
:1018A8000192019A104AE36084E80C004FF48062C8
:1018B80022614FF4006262614FF40052A261204637
:1018C8004FF48072E26123626362FFF7BFF908B1E7
:1018D80000F0A2F9AC63A56303B030BD002001405D
:1018E80000380240F40000201064024013B50C4890
:1018F8000C4B0360002400940194FFF7BFF808B173
:1019080000F08AF924230022694605488DE818006A
:10191800FFF748F908B100F07FF902B010BD00BF29
:10192800B40100200074004070B5064688B0142247
:10193800002103A800F02CFC3268214B9A423CD1CC
:1019480003F5E233002501951A6C1E481E4C42F03F
:1019580000521A641A6C02F000520192019A029520
:101968001A6B42F001021A631B6B03F00103029326
:10197800029B1023039303A903230493FFF7D6FACA
:101988001249E56040234FF0606284E80E004FF48E
:10199800806323614FF4006363614FF40053A361D4
:1019A80020464FF48073E36125626562FFF74EF9C4
:1019B80008B100F031F9B460A66308B070BD00BF8B
:1019C800007400400000024054010020886002407A
:1019D80013B5144B002400941A6B42F480021A6366
:1019E8001A6B02F480020092009A01941A6B42F476
:1019F80000121A631B6B03F400132246214601935D
:101A08001020019BFEF7E2FF1020FFF713F8224693
:101A180021463820FEF7DAFF3820FFF70BF802B02E
:101A280010BD00BF0038024082B00C4B002100916D
:101A38001A6B42F080021A631A6B02F0800200925D
:101A4800009A01911A6B42F001021A631B6B03F0B2
:101A580001030193019B02B0704700BF00380240A8
:101A680013B5084B084C094800221A804FF400733C
:101A78000093074A2346402100F04EFB00B920801E
:101A880002B010BD540E0020C8090020480E0020E6
:101A980006000020044B054A1A60054B054A1A60E7
:101AA800054B01221A8070475C0E0020600E002052
:101AB800580E0020C8010020540E0020044B054A8F
:101AC8001A60054B054A1A60054B01221A807047B7
:101AD8005C0E002060120020580E0020C80500206F
:101AE800540E0020094A13889BB210B563B1002434
:101AF80014800749074A0968126807484FF40073B9
:101B080000F058F9054B1C8010BD00BF540E002092
:101B18005C0E0020580E0020480E0020C809002046
:101B280030B595B03022002108A800F031FB002123
:101B3800142203A800F02CFB00241D4B01941A6CFE
:101B480042F080521A641B6C03F080530193019B8E
:101B5800184B02941A6842F480421A601B6803F416
:101B680080430293029B012308934FF48033099327
:101B78004FF480030F93192310934FF4A873022591
:101B8800119308A8042313930E951295FFF7AEFA44
:101B98000F2303934FF4A053069305214FF480536A
:101BA80003A8049505940793FFF748FC15B030BDCA
:101BB800003802400070004007B5FFF751FFFEF7FC
:101BC800AFFCFFF7ADFFFFF72FFFFFF701FFFFF7B0
:101BD8001FFEFFF78BFE00F079F80A48FFF7C6FCF6
:101BE8004FF4806208490948FEF76CFD0021009116
:101BF8004FF48063064A0748FEF754FFFFF772FF69
:101C0800FCE700BF60160020600E0020AC0000203A
:101C1800C8010020B40100207047000082B00C4BBE
:101C2800002100915A6C42F480425A645A6C02F4C2
:101C380080420092009A01911A6C42F080521A6414
:101C48001B6C03F080530193019B02B0704700BFE7
:101C5800003802407047FEE7FEE7FEE7FEE7704700
:101C680070477047FEF776BC0148FFF7A5B800BF7C
:101C7800540100200148FFF79FB800BFF40000207E
:101C88000F49D1F8883043F47003C1F888300D4B00
:101C98001A68002042F001021A6098601A6822F05F
:101CA800847222F480321A60074A5A601A6822F451
:101CB80080221A60D8604FF000638B60704700BFC5
:101CC80000ED00E000380240103000247FB51022FB
:101CD800002102A800F05CFA154800234FF080426A
:101CE80080E80C004FF4D262009301938360C260D5
:101CF80003618361FFF7B2FC08B1FFF78DFF4FF472
:101D0800805302A90A480293FFF7CCFC08B1FFF7F9
:101D180083FF20220023694605488DE80C00FFF761
:101D280058FD08B1FFF778FF07B05DF804FB00BF66
:101D3800601600200368B3F1804F82B00BD10023F6
:101D48000193064B1A6C42F001021A641B6C03F0F3
:101D580001030193019B02B0704700BF00380240A5
:101D6800DFF834D0002103E00C4B5B5843500431BA
:101D78000B480C4B42189A42F6D30B4A02E0002358
:101D880042F8043B094B9A42F9D3FFF779FF00F078
:101D9800D9F9FFF711FF704700000220E821000879
:101DA800000000208C0000208C000020A0160020DD
:101DB800FEE700002DE9F04F054699B06C681690D3
:101DC80000881094264600F1004CAC6817930CF17B
:101DD800FF3C1F460C94234606EB4C042546119401
:101DE800BC08149012911392159400F0E8802746CD
:101DF800044680080B90C00003440E9304F00303CC
:101E08000D9305F1080305930B4608330693134613
:101E18000833099306F108030F9007930897069A69
:101E2800059C32F9083C24F8083C32F9063C24F8B1
:101E3800063C11460B9E31F9043C24F8043C079AF1
:101E480031F9023C24F8023C52F8089C52F8048C00
:101E580013469246002E00F0358108339B460A93BC
:101E68000C9BCDF800B0002003F1080A1FFA88F394
:101E780007460190054604468446864603964A4628
:101E880002909B465AF8083CC2FBC3CE019EC8FB91
:101E9800C3762146120C009C12044BEA020954F83E
:101EA800082CC9FBD3514FEA18491FFA82FB4FEAA5
:101EB800094904914BEA09090299C9FBD3015AF867
:101EC800043CC8FBC3CE54F8048CC2FBC37601960D
:101ED800049CC9FBD354160C1FFA88FB36044BEA42
:101EE8000606C6FBD301009B029108330093039BAF
:101EF800013B0AF1080A0393C4D19146079B0F9A44
:101F080013449A460E9B0D9ACAB11B68C9FBC3CEEF
:101F1800019EC8FBC3764FEA19491FFA88F24FEAB7
:101F28000949019642EA0909DAF80060C9FBD35465
:101F38004FEA18421204B6B21643C6FBD301019BFE
:101F4800099A4FEADC3CFF0B47EA43474CEA4E4C00
:101F580007F30F070CF30F0CBFB21FFA8CFCED0B45
:101F6800C00B45EA444540EA414005F30F0500F33C
:101F78000F004CEA054547EA0047134642F8085C5B
:101F880042F8047C059A0833083209930A9B0592A3
:101F98000793069A089B0832013B069208937FF440
:101FA8003EAF159B119ADB001A441192129A1A44FB
:101FB8001292139A1A441392109A1A441092179B69
:101FC80013F0030302933FD0119AA2F1020C0C9A6A
:101FD80002F10409149ACDF804904FEA5208109AB5
:101FE800CDF80080DDF84C90DDF8488002F1040E51
:101FF8001F4638F9023B019A00992CF8023F002449
:102008007346002533F904BC32F904AC33F9026C89
:1020180032F9020CCBFB8A45013903F10403C6FBF4
:10202800804502F10402EDD1E30B013F43EA454349
:102038000EF1020E03F30F0329F8023BD9D1109BCE
:10204800029A03EB42031093149B5F1E169BBD0874
:102058005E6829D01098024606F1100310329642A5
:1020680038BF98422CBF01230023022D94BF0023C0
:1020780003F001039BB3034633439B072FD100F1C1
:10208800080206F10803002112E9110001318D420E
:1020980003E9110002F1080203F10803F4D1109BCF
:1020A800ED002B442E44109317F0030307D0109A29
:1020B800023E32F9021B26F8021F013BF9D119B082
:1020C800BDE8F08F0AF108020C9B019630463146B4
:1020D80037463546B6463446B4460A9213E7109B4F
:1020E80006F108020833294633F9080C22F8080CCF
:1020F80033F9060C22F8060C33F9040C22F8040C08
:1021080033F9020C22F8020C013903F1080302F139
:102118000802E9D1C3E700BF70B511F001050ED17F
:102128001E461346049A018004468A1883605200AA
:102138002946304600F02CF86660284670BD4FF0FE
:10214800FF3070BD70B50E4B0E4CE41AA41000257C
:102158001E46A54204D056F8253098470135F8E7C1
:1021680000F01EF8084C094BE41AA41000251E467E
:10217800A54204D056F8253098470135F8E770BDD8
:10218800E0210008E0210008E4210008E02100081F
:1021980002440346934202D003F8011BFAE7704752
:1021A800F8B500BFF8BC08BC9E467047F8B500BF3C
:0821B800F8BC08BC9E4670470C
:1021C00000061016000610160000000000000000B7
:0821D0000102030406070809DF
:0821D80020E0FF7F0100000080
:0421E000AD01000845
:0421E4008901000865
:1021E80010000000010000020002000200020002CC
:1021F80000020002000200020002000200020002C7
:1022080000020002000200020002000200020002B6
:1022180000020002000200020002000200020002A6
:102228000002000200020002000200020002000296
:102238000002000200020002000200020002000286
:102248000002000200020002000200020002000276
:102258000002000200020002000200020002000266
:0C22680000020002000200000024F4004C
:0400000508001D6969
:00000001FF
