:020000040800F2
:10000000000002202D1300081D1200081F12000816
:100010002112000823120008251200080000000029
:10002000000000000000000000000000271200088F
:1000300029120008000000002B1200082D120008F1
:100040007D1300087D1300087D1300087D13000850
:100050007D1300087D1300087D1300087D13000840
:100060007D1300087D1300087D1300087D13000830
:100070007D1300087D1300087D1300087D13000820
:100080007D1300087D1300087D1300087D13000810
:100090007D1300087D1300087D1300087D13000800
:1000A0007D1300087D1300087D1300087D130008F0
:1000B000311200087D1300087D1300087D1300082D
:1000C0007D1300087D1300087D1300087D130008D0
:1000D0007D1300087D1300087D1300087D130008C0
:1000E0007D1300087D1300087D1300087D130008B0
:1000F0007D1300087D1300087D1300087D130008A0
:100100007D1300087D1300087D1300087D1300088F
:100110007D1300087D1300087D1300087D1300087F
:100120007D1300087D1300087D1300087D1300086F
:100130007D1300087D1300087D1300087D1300085F
:100140007D1300087D1300087D1300087D1300084F
:100150007D1300087D1300087D1300087D1300083F
:100160007D1300087D1300087D1300087D1300082F
:100170007D1300087D1300087D13000800000000B7
:080180007D1300087D13000847
:1001880010B5054C237833B9044B13B10448AFF3C9
:1001980000800123237010BD0C0000200000000027
:1001A800DC13000808B5034B1BB103490348AFF340
:1001B800008008BD0000000010000020DC130008CB
:1001C80053B94AB9002908BF00281CBF4FF0FF31B6
:1001D8004FF0FF3000F07EB9ADF1080C6DE904CEA8
:1001E80000F006F8DDF804E0DDE9022304B070470A
:1001F8002DE9F0478C460E460446089D002B50D149
:100208008A4217466CD9B2FA82FEBEF1000F0BD0B3
:10021800CEF1200420FA04F401FA0EF644EA060CA2
:1002280002FA0EF700FA0EF44FEA1749220CBCFB4B
:10023800F9F01FFA87F809FB10C642EA064600FBE8
:1002480008F3B34209D9F61900F1FF3280F0228190
:10025800B34240F21F8102383E44F61AA2B2B6FBFE
:10026800F9F309FB136642EA064403FB08F8A045C4
:1002780009D9E41903F1FF3280F00A81A04540F260
:100288000781023B3C44C8EB040443EA00400021D8
:10029800002D62D024FA0EF400232C606B60BDE8B8
:1002A800F0878B4207D9002D55D0002185E8410001
:1002B8000846BDE8F087B3FA83F1002940F0908042
:1002C800B34202D3824200F2F880841A66EB030636
:1002D8000120B446002D40D085E81010BDE8F08715
:1002E80012B90127B7FBF2F7B7FA87FEBEF1000F84
:1002F80035D1F31B4FEA17481FFA87FC0121B3FBDE
:10030800F8F0220C08FB103642EA06460CFB00F314
:10031800B34207D9F61900F1FF3202D2B34200F214
:10032800CE801046F61AA2B2B6FBF8F308FB1366A5
:1003380042EA06440CFB03FCA44507D9E41903F17F
:10034800FF3202D2A44500F2B5801346CCEB040478
:1003580043EA00409CE729462846BDE8F087CEF1ED
:10036800200106FA0EF307FA0EF720FA01F94FEA10
:100378001748CE4049EA0309B6FBF8FA4FEA194490
:1003880008FB1A661FFA87FC44EA06430AFB0CF2CC
:100398009A4200FA0EF40AD9DB190AF1FF3180F00B
:1003A80087809A4240F28480AAF1020A3B449B1A51
:1003B8001FFA89F9B3FBF8F108FB113349EA034343
:1003C80001FB0CF69E4207D9DB1901F1FF326BD213
:1003D8009E4269D902393B449B1B41EA0A418EE798
:1003E800C1F1200E22FA0EF48B40234320FA0EF7B7
:1003F80006FA01F44FEA134C26FA0EF63C43B6FB14
:10040800FCF9270C0CFB19661FFA83F847EA064625
:1004180009FB08F7B74202FA01F200FA01FA08D913
:10042800F61809F1FF3041D2B7423FD9A9F10209C4
:100438001E44F61BA0B2B6FBFCF40CFB146640EAA3
:10044800064704FB08F8B84507D9FF1804F1FF3040
:1004580028D2B84526D9023C1F4444EA0940C8EBD3
:100468000707A0FB02894F4544464E4614D329D0BE
:1004780065B3BAEB040367EB060707FA0EFECB4039
:10048800CF404EEA030385E888000021BDE8F087E5
:100498001346F8E61046E0E6B8EB020469EB0306FB
:1004A8000138E5E70446D8E7114695E78146C0E7F5
:1004B8008A467CE7023B3C4448E708460AE702389C
:1004C8003E442FE7C245E7D33E46D1E72946BDE87B
:1004D800F08700BF704700BF38B50E4A0E4B05467F
:1004E80018784FF47A73B3FBF0F31068B0FBF3F0AD
:1004F80000F096F8044658B90F2D09D80246294647
:100508004FF0FF3000F04AF8044B20461D6038BD1C
:10051800012038BD08000020040000200000002051
:1005280008B50B4B1A6842F400721A601A6842F454
:1005380080621A601A6842F480721A60032000F020
:100548001BF80020FFF7C8FF00F048FE002008BD98
:10055800003C0240034A0449136809780B441360BD
:10056800704700BF2800002004000020014B1868D5
:10057800704700BF28000020074AD36823F4E063CF
:100588001B041B0C43F0BF63000243F4003300F468
:10059800E0600343D360704700ED00E0174BDB6871
:1005A800C3F3022330B5C3F107041D1D042C28BF73
:1005B8000424062D4FF0010505FA04F404F1FF3474
:1005C8008CBF033B00230C409C4005FA03F3013B1E
:1005D8001A40002842EA04024FEA0212ADBF00F1B5
:1005E800604000F00F00064B00F56140B5BFD2B285
:1005F800D2B21A5480F8002330BD00BF00ED00E0ED
:1006080014ED00E0002808DB4209012300F01F0078
:1006180003FA00F0014B43F82200704700E100E0C4
:100628000138B0F1807F0AD2064B074A5860F021A2
:1006380082F823100020072298601A607047012072
:10064800704700BF10E000E000ED00E02DE9F04F3A
:100658006A4F0B68DFF8ACC1DFF8AC8185B00022C7
:100668000193BE460124019B944034EA030340F001
:10067800BD804D6825F0100ABAF1020F14D14FEA77
:10068800D20900EB890902F0070BD9F820604FEA7C
:100698008B0B0F2303FA0BF326EA03060B6903FA05
:1006A8000BF33343C9F820304FEA420B4FF00309EC
:1006B800036809FA0BF96FEA090905F0030603EA6A
:1006C800090306FA0BF60AF1FF3A3343BAF1010FB0
:1006D80003600FD88368CE6809EA030306FA0BF6AD
:1006E8001E4386604368C5F3001623EA0403964058
:1006F80033434360C36809EA03098B6803FA0BF3C1
:1007080043EA0903C360EB0070D500230393DCF8C8
:1007180044603B4B46F48046CCF84460DCF84460C7
:1007280022F0030909F1804906F4804609F59C394D
:10073800039602F0030A039ED9F808B04FEA8A0A22
:100748000F2606FA0AF698422BEA06061CD003F58D
:10075800806398421AD003F58063984218D003F555
:100768008063984216D003F58063984214D04045C0
:1007780014D003F50063984212D003F580639842C1
:1007880014BF082307230CE000230AE0012308E034
:10079800022306E0032304E0042302E0052300E02B
:1007A800062303FA0AF33343C9F808303B68E643E3
:1007B80015F4803F0CBF33402343CEF80030DEF8F9
:1007C800043015F4003F0CBF334023437B60BB6803
:1007D80015F4801F0CBF33402343CEF80830DEF8F1
:1007E8000C30AD0254BF33402343FB600132102A62
:1007F8007FF438AF05B0BDE8F08F00BF003C014082
:1008080000000240003802400014024002B9090406
:1008180081617047436931EA030308BF09048161B4
:10082800704700002DE9F341044608B9012070E142
:100838000368DD0703D4236898074AD48EE09B4BEE
:100848009A6802F00C02042A07D09A6802F00C0297
:10085800082A0AD15B68590207D5944B1B689A038A
:10086800E9D56368002BE6D1E0E763688F4DB3F5FF
:10087800803F06D0B3F5A02F08D12B6843F480231E
:100888002B602B6843F480332B6008E02A6822F43D
:1008980080322A602A6822F480222A606BB1FFF72E
:1008A80065FE824D06462B689B03C4D4FFF75EFEA7
:1008B800801B6428F7D903202BE1FFF757FE064673
:1008C8002B689F03B7D5FFF751FE801B6428F7D923
:1008D800F1E7764B9A6812F00C0F07D09A6802F08D
:1008E8000C02082A11D15B685E020ED46F4B1A689D
:1008F800950702D5E268012A98D11A68216922F081
:10090800F80242EAC1021A6028E0E268684BBAB10C
:1009180001221A60FFF72AFE644D06462B68634AD7
:10092800980705D4FFF722FE801B0228F6D9C2E7F4
:100938001368216923F0F80343EAC10313600DE04B
:100948001A60FFF713FE594D06462B68990705D51F
:10095800FFF70CFE801B0228F7D9ACE723681A07BB
:1009680003D423685B0720D482E06269514B72B1DB
:1009780001221A60FFF7FAFD4C4D06466B6F9F0780
:10098800EFD4FFF7F3FD801B0228F7D993E71A602D
:10099800FFF7ECFD454D06466B6F9807E1D5FFF76D
:1009A800E5FD801B0228F7D985E7404B1A6C12F049
:1009B80080520BD101921A6C42F080521A641B6C5F
:1009C80003F080530193019B012600E000263A4D75
:1009D8002B68D90504D5A368344D012B10D115E037
:1009E8002B6843F480732B60FFF7C0FD07462B6824
:1009F800DA05F0D4FFF7BAFDC01B0228F7D95AE789
:100A0800052B08D12B6F43F004032B672B6F43F0A2
:100A180001032B6708E02A6F22F001022A672A6F78
:100A280022F004022A6773B1FFF7A0FD1F4D0746A5
:100A380041F288382B6F9B070DD4FFF797FDC01B39
:100A48004045F7D937E7FFF791FD41F28838074667
:100A58002B6F980706D45EB1144A136C23F08053A9
:100A6800136405E0FFF782FDC01B4045F0D922E77B
:100A7800A2690AB900204CE00C4DAB6803F00C03E6
:100A8800082B3FF4D3AE0D4E0023022A336034D135
:100A9800FFF76CFD80462B68044F990110D5FFF7CE
:100AA80065FDC8EB00000228F5D904E700380240CC
:100AB80000004742800E47420070004060004742F5
:100AC800E269236A1343626A43EA8213E26A43EAE9
:100AD8000262A36A5B08013B42EA03437B6001238D
:100AE8003360FFF743FD04463B689A01C2D4FFF721
:100AF8003DFD001B0228F7D9DDE6FFF737FD044668
:100B08002B689B01B6D5FFF731FD001B0228F7D9EA
:100B1800D1E602B0BDE8F081134908B58B6803F04F
:100B28000C03042B1CD0082B1CD14A684B6849685D
:100B380013F4800314BF0D480D48C1F3881118BF82
:100B4800002302F03F02A1FB0001FFF739FB064B2F
:100B58005B68C3F3014301335B00B0FBF3F008BDEE
:100B6800024808BD024808BD0038024040787D01AF
:100B78000024F4002DE9F0410D46044610B9012087
:100B8800BDE8F081434B1A6802F00F028A4217D37E
:100B9800226896071CD5404B12F0040F1EBF9968B7
:100BA80041F4E0519960100742BF996841F46041EF
:100BB8009960996821F0F000A1680143996007E005
:100BC800CAB21A701B6803F00F039942D7D1DFE746
:100BD800D10706D42F4B1A6802F00F0295422CD386
:100BE80032E063682C4A012B03D1126812F4003FEB
:100BF80008E0991E0129126802D812F0007F01E06E
:100C080012F0020FBBD0244EB26822F00302134345
:100C1800B360FFF7ABFC41F288380746B3686268F7
:100C280003F00C03B3EB820FD4D0FFF79FFCC01B7B
:100C38004045F3D90320BDE8F081EAB21A701B6879
:100C480003F00F039D429AD121684A0706D512483E
:100C5800836823F4E052E368134383600B0707D5E6
:100C68000D4A2169936823F4604343EAC103936002
:100C7800FFF752FF084B094A9B68C3F30313D35C81
:100C8800D840074B18600020FFF726FC0020BDE87D
:100C9800F08100BF003C024000380240F413000815
:100CA800080000200368DA6842F00102DA609A68F6
:100CB80002F00702062A1EBF1A6842F001021A60F3
:100CC80000207047704770477047704703681A697B
:100CD800910710B5044614D5DA68920711D56FF05C
:100CE80002021A619B6901229B07027702D0FFF773
:100CF800EAFF04E0FFF7E6FF2046FFF7E5FF0023E1
:100D0800237723681A69500716D5DA68510713D56F
:100D18006FF004021A619B69022213F4407F227764
:100D2800204602D0FFF7CFFF04E0FFF7CBFF2046B5
:100D3800FFF7CAFF0023237723681A69120715D51E
:100D4800DA68100712D56FF008021A61DB6904220D
:100D580099072277204602D0FFF7B5FF04E0FFF796
:100D6800B1FF2046FFF7B0FF0023237723681A69F5
:100D7800D20616D5DA68D00613D56FF010021A61BC
:100D8800DB69082213F4407F2277204602D0FFF760
:100D98009AFF04E0FFF796FF2046FFF795FF002330
:100DA800237723681A69D10708D5DA68D20705D5E9
:100DB8006FF001021A61204600F0A2F923681A694F
:100DC800100608D5DA68110605D56FF080021A6199
:100DD800204600F05DF923681A69520608D5DA68DA
:100DE800500605D56FF040021A612046FFF76DFFE7
:100DF80023681A6991060AD5DA68920607D56FF052
:100E0800200220461A61BDE8104000F040B910BD2C
:100E1800304A0368904212D0B0F1804F0FD0A2F54B
:100E28007C4290420BD002F58062904207D002F5D6
:100E38008062904203D002F57842904219D14A6804
:100E480023F070031343234A904229D0B0F1804F16
:100E580026D0A2F57C42904222D002F580629042D0
:100E68001ED002F5806290421AD002F57842904274
:100E780016D0194A904213D002F5806290420FD0E2
:100E880002F5806290420BD0A2F59832904207D0CA
:100E980002F58062904203D002F58062904203D14D
:100EA800CA6823F4407313434A6923F08003134349
:100EB80003608B68C3620B688362064B984203D059
:100EC80003F58063984201D10B69036301234361F1
:100ED800704700BF000001400040014010B50446C3
:100EE800A0B190F83D3003F0FF021BB980F83C2018
:100EF80000F0FCF9022384F83D302068211DFFF73B
:100F080087FF012384F83D30002010BD012010BD6B
:100F180010B5846824F47F4421430A4342EA03233A
:100F2800836010BD90F83C30012B70B504464FF03B
:100F3800020000F08D8084F83D002068012384F8C9
:100F48003C30836823F47F4323F0770383600B6886
:100F5800402B59D00AD8102B6DD002D8002B6AD05C
:100F680070E0202B67D0302B65D06BE0602B33D03E
:100F780018D8502B66D1036A4D68CE68016A21F0F3
:100F880001010162826923F00A0322F0F0022B4377
:100F980042EA061282610362836823F0700343F019
:100FA80057034EE0702B0CD0B3F5005F4AD1CB68E5
:100FB8004A688968FFF7ACFF2268936843F4804366
:100FC80008E0CB684A688968FFF7A2FF226893683F
:100FD80043F07703936035E04D68CE68016A21F0ED
:100FE800100101628269036A22F4704223F0A003AF
:100FF80043EA051342EA063282610362836823F0FA
:10100800700343F067031CE0036A4D68CE68016A09
:1010180021F001010162826923F00A0322F0F00243
:101028002B4342EA061282610362836823F070034D
:1010380043F0470305E0826843F0070322F070029B
:10104800134383600123002084F83D3084F83C007A
:1010580070BD90F83C30012B30B54FF0020314D02E
:1010680080F83D3003685C689A6824F070050C6865
:101078002C4322F080054A685C602A439A60012369
:1010880080F83D30002380F83C30184630BD70476A
:101098007047000030B589B01422002103A800F081
:1010A80091F90024144B01941A6B144D42F08002FC
:1010B8001A631A6B02F080020192019A02941A6B69
:1010C80042F008021A631B6B03F0080302932246DE
:1010D80028464FF47041029BFFF798FB4FF470438A
:1010E800039303A901232846049305940694FFF764
:1010F800ADFA09B030BD00BF00380240000C024014
:1011080008B505484FF47041FFF784FB0348BDE874
:101118000840FFF7C7BD00BF000C02402C000020AC
:1011280030B595B03022002108A800F04BF9002115
:10113800142203A800F046F900241D4B01941A6CF0
:1011480042F080521A641B6C03F080530193019B98
:10115800184B02941A6842F480421A601B6803F420
:1011680080430293029B012308934FF48033099331
:101178004FF480030F93192310934FF4A87302259B
:10118800119308A8042313930E951295FFF74AFBB1
:101198000F2303934FF4A053069305214FF4805374
:1011A80003A8049505940793FFF7E4FC15B030BD38
:1011B800003802400070004008B5FFF7B1F9FFF7AA
:1011C800AFFFFFF767FF00F05BF80248FFF76AFD23
:1011D800FEE700BF2C0000207047000082B00C4BD7
:1011E800002100915A6C42F480425A645A6C02F40D
:1011F80080420092009A01911A6C42F080521A645F
:101208001B6C03F080530193019B02B0704700BF31
:10121800003802407047FEE7FEE7FEE7FEE770474A
:1012280070477047FFF796B90148FFF74FBD00BFF9
:101238002C0000200F49D1F8883043F47003C1F81E
:1012480088300D4B1A68002042F001021A6098603D
:101258001A6822F0847222F480321A60074A5A60AF
:101268001A6822F480221A60D8604FF000638B60FD
:10127800704700BF00ED00E0003802401030002445
:101288007FB51022002102A800F09CF81548164AE4
:101298004FF08041002380E806004FF47A720093F3
:1012A80001938360C26003618361FFF717FE08B191
:1012B800FFF792FF4FF4805302A90A480293FFF701
:1012C80031FE08B1FFF788FF202200236946054850
:1012D8008DE80C00FFF7BDFE08B1FFF77DFF07B0F2
:1012E8005DF804FB2C000020204801000368B3F1DE
:1012F800804F07B513D1002203F50E330192196C04
:1013080041F0010119641B6C03F0010301931C20D7
:101318001146019BFFF742F91C20FFF773F903B050
:101328005DF804FBDFF834D0002103E00C4B5B5878
:10133800435004310B480C4B42189A42F6D30B4ADF
:1013480002E0002342F8043B094B9A42F9D3FFF725
:1013580071FF00F011F8FFF72FFF7047000002201F
:1013680014140008000000200C0000200C000020CD
:101378006C000020FEE7000070B50E4B0E4CE41A1E
:10138800A41000251E46A54204D056F825309847DB
:101398000135F8E700F01EF8084C094BE41AA410D0
:1013A80000251E46A54204D056F825309847013539
:1013B800F8E770BD0C1400080C140008101400089D
:1013C8000C14000802440346934202D003F8011BA0
:1013D800FAE77047F8B500BFF8BC08BC9E467047EE
:0C13E800F8B500BFF8BC08BC9E4670477A
:1013F40000000000000000000102030406070809C1
:08140400F4EDFF7F0100000080
:04140C00AD01000826
:041410008901000846
:0C14140010000000010000000024F400A3
:040000050800132DAF
:00000001FF
